{
  "_format": "hh-sol-artifact-1",
  "contractName": "Marketplace",
  "sourceName": "src/backend/contracts/Marketplace.sol",
  "abi": [
    {
      "inputs": [
        {
          "internalType": "uint256",
          "name": "_feePercent",
          "type": "uint256"
        }
      ],
      "stateMutability": "nonpayable",
      "type": "constructor"
    },
    {
      "anonymous": false,
      "inputs": [
        {
          "indexed": false,
          "internalType": "uint256",
          "name": "itemId",
          "type": "uint256"
        },
        {
          "indexed": true,
          "internalType": "address",
          "name": "nft",
          "type": "address"
        },
        {
          "indexed": false,
          "internalType": "uint256",
          "name": "tokenId",
          "type": "uint256"
        },
        {
          "indexed": false,
          "internalType": "uint256",
          "name": "price",
          "type": "uint256"
        },
        {
          "indexed": true,
          "internalType": "address",
          "name": "seller",
          "type": "address"
        },
        {
          "indexed": true,
          "internalType": "address",
          "name": "buyer",
          "type": "address"
        }
      ],
      "name": "Bought",
      "type": "event"
    },
    {
      "anonymous": false,
      "inputs": [
        {
          "indexed": false,
          "internalType": "uint256",
          "name": "itemId",
          "type": "uint256"
        },
        {
          "indexed": true,
          "internalType": "address",
          "name": "nft",
          "type": "address"
        },
        {
          "indexed": false,
          "internalType": "uint256",
          "name": "tokenId",
          "type": "uint256"
        },
        {
          "indexed": false,
          "internalType": "uint256",
          "name": "price",
          "type": "uint256"
        },
        {
          "indexed": true,
          "internalType": "address",
          "name": "seller",
          "type": "address"
        }
      ],
      "name": "Offered",
      "type": "event"
    },
    {
      "inputs": [],
      "name": "feeAccount",
      "outputs": [
        {
          "internalType": "address payable",
          "name": "",
          "type": "address"
        }
      ],
      "stateMutability": "view",
      "type": "function"
    },
    {
      "inputs": [],
      "name": "feePercent",
      "outputs": [
        {
          "internalType": "uint256",
          "name": "",
          "type": "uint256"
        }
      ],
      "stateMutability": "view",
      "type": "function"
    },
    {
      "inputs": [
        {
          "internalType": "uint256",
          "name": "_itemId",
          "type": "uint256"
        }
      ],
      "name": "getTotalPrice",
      "outputs": [
        {
          "internalType": "uint256",
          "name": "",
          "type": "uint256"
        }
      ],
      "stateMutability": "view",
      "type": "function"
    },
    {
      "inputs": [],
      "name": "itemCount",
      "outputs": [
        {
          "internalType": "uint256",
          "name": "",
          "type": "uint256"
        }
      ],
      "stateMutability": "view",
      "type": "function"
    },
    {
      "inputs": [
        {
          "internalType": "uint256",
          "name": "",
          "type": "uint256"
        }
      ],
      "name": "items",
      "outputs": [
        {
          "internalType": "uint256",
          "name": "itemId",
          "type": "uint256"
        },
        {
          "internalType": "string",
          "name": "collectionName",
          "type": "string"
        },
        {
          "internalType": "contract IERC721",
          "name": "nft",
          "type": "address"
        },
        {
          "internalType": "uint256",
          "name": "tokenId",
          "type": "uint256"
        },
        {
          "internalType": "uint256",
          "name": "price",
          "type": "uint256"
        },
        {
          "internalType": "address payable",
          "name": "seller",
          "type": "address"
        },
        {
          "internalType": "bool",
          "name": "sold",
          "type": "bool"
        }
      ],
      "stateMutability": "view",
      "type": "function"
    },
    {
      "inputs": [
        {
          "internalType": "string",
          "name": "_collectionName",
          "type": "string"
        },
        {
          "internalType": "contract IERC721",
          "name": "_nft",
          "type": "address"
        },
        {
          "internalType": "uint256",
          "name": "_tokenId",
          "type": "uint256"
        },
        {
          "internalType": "uint256",
          "name": "_price",
          "type": "uint256"
        }
      ],
      "name": "makeItem",
      "outputs": [],
      "stateMutability": "nonpayable",
      "type": "function"
    },
    {
      "inputs": [
        {
          "internalType": "uint256",
          "name": "_itemId",
          "type": "uint256"
        }
      ],
      "name": "purchaseItem",
      "outputs": [],
      "stateMutability": "payable",
      "type": "function"
    }
  ],
  "bytecode": "0x60c06040523480156200001157600080fd5b50604051620015273803806200152783398181016040528101906200003791906200009c565b60016000819055503373ffffffffffffffffffffffffffffffffffffffff1660808173ffffffffffffffffffffffffffffffffffffffff1660601b815250508060a0818152505050620000ec565b6000815190506200009681620000d2565b92915050565b600060208284031215620000af57600080fd5b6000620000bf8482850162000085565b91505092915050565b6000819050919050565b620000dd81620000c8565b8114620000e957600080fd5b50565b60805160601c60a05161140462000123600039600081816101e701526103260152600081816101bd015261050601526114046000f3fe6080604052600436106100705760003560e01c8063bfb231d21161004e578063bfb231d2146100f6578063ca7dd37514610139578063d38ea5bf14610176578063f2ce5b321461019257610070565b806365e17c9d146100755780636bfb0d01146100a05780637fd6f15c146100cb575b600080fd5b34801561008157600080fd5b5061008a6101bb565b6040516100979190610d21565b60405180910390f35b3480156100ac57600080fd5b506100b56101df565b6040516100c29190610e13565b60405180910390f35b3480156100d757600080fd5b506100e06101e5565b6040516100ed9190610e13565b60405180910390f35b34801561010257600080fd5b5061011d60048036038101906101189190610bc5565b610209565b6040516101309796959493929190610e2e565b60405180910390f35b34801561014557600080fd5b50610160600480360381019061015b9190610bc5565b610320565b60405161016d9190610e13565b60405180910390f35b610190600480360381019061018b9190610bc5565b610383565b005b34801561019e57600080fd5b506101b960048036038101906101b49190610b4a565b61070b565b005b7f000000000000000000000000000000000000000000000000000000000000000081565b60015481565b7f000000000000000000000000000000000000000000000000000000000000000081565b600260205280600052604060002060009150905080600001549080600101805461023290611134565b80601f016020809104026020016040519081016040528092919081815260200182805461025e90611134565b80156102ab5780601f10610280576101008083540402835291602001916102ab565b820191906000526020600020905b81548152906001019060200180831161028e57829003601f168201915b5050505050908060020160009054906101000a900473ffffffffffffffffffffffffffffffffffffffff16908060030154908060040154908060050160009054906101000a900473ffffffffffffffffffffffffffffffffffffffff16908060050160149054906101000a900460ff16905087565b600060647f000000000000000000000000000000000000000000000000000000000000000060646103519190610f4d565b60026000858152602001908152602001600020600401546103729190610fd4565b61037c9190610fa3565b9050919050565b61038b6109bb565b600061039682610320565b905060006002600084815260200190815260200160002090506000831180156103c157506001548311155b610400576040517f08c379a00000000000000000000000000000000000000000000000000000000081526004016103f790610db3565b60405180910390fd5b81341015610443576040517f08c379a000000000000000000000000000000000000000000000000000000000815260040161043a90610d93565b60405180910390fd5b8060050160149054906101000a900460ff1615610495576040517f08c379a000000000000000000000000000000000000000000000000000000000815260040161048c90610df3565b60405180910390fd5b8060050160009054906101000a900473ffffffffffffffffffffffffffffffffffffffff1673ffffffffffffffffffffffffffffffffffffffff166108fc82600401549081150290604051600060405180830381858888f19350505050158015610503573d6000803e3d6000fd5b507f000000000000000000000000000000000000000000000000000000000000000073ffffffffffffffffffffffffffffffffffffffff166108fc82600401548461054e919061102e565b9081150290604051600060405180830381858888f19350505050158015610579573d6000803e3d6000fd5b5060018160050160146101000a81548160ff0219169083151502179055508060020160009054906101000a900473ffffffffffffffffffffffffffffffffffffffff1673ffffffffffffffffffffffffffffffffffffffff166323b872dd303384600301546040518463ffffffff1660e01b81526004016105fc93929190610d3c565b600060405180830381600087803b15801561061657600080fd5b505af115801561062a573d6000803e3d6000fd5b505050503373ffffffffffffffffffffffffffffffffffffffff168160050160009054906101000a900473ffffffffffffffffffffffffffffffffffffffff1673ffffffffffffffffffffffffffffffffffffffff168260020160009054906101000a900473ffffffffffffffffffffffffffffffffffffffff1673ffffffffffffffffffffffffffffffffffffffff167f8b4c9c8a607d67b321582dd8461041b1dc2ceeca70c8b7f37f8e02095cf2e76d86856003015486600401546040516106f693929190610ea4565b60405180910390a45050610708610a0b565b50565b6107136109bb565b60008111610756576040517f08c379a000000000000000000000000000000000000000000000000000000000815260040161074d90610d73565b60405180910390fd5b6001600081548092919061076990611197565b91905055508273ffffffffffffffffffffffffffffffffffffffff166323b872dd3330856040518463ffffffff1660e01b81526004016107ab93929190610d3c565b600060405180830381600087803b1580156107c557600080fd5b505af11580156107d9573d6000803e3d6000fd5b505050506040518060e0016040528060015481526020018581526020018473ffffffffffffffffffffffffffffffffffffffff1681526020018381526020018281526020013373ffffffffffffffffffffffffffffffffffffffff1681526020016000151581525060026000600154815260200190815260200160002060008201518160000155602082015181600101908051906020019061087c929190610a15565b5060408201518160020160006101000a81548173ffffffffffffffffffffffffffffffffffffffff021916908373ffffffffffffffffffffffffffffffffffffffff160217905550606082015181600301556080820151816004015560a08201518160050160006101000a81548173ffffffffffffffffffffffffffffffffffffffff021916908373ffffffffffffffffffffffffffffffffffffffff16021790555060c08201518160050160146101000a81548160ff0219169083151502179055509050503373ffffffffffffffffffffffffffffffffffffffff168373ffffffffffffffffffffffffffffffffffffffff167f655a0cf9c8db81512be9a76dc1c5ae5380b8816ce6ad659cd61b715e2999d59a60015485856040516109a593929190610ea4565b60405180910390a36109b5610a0b565b50505050565b60026000541415610a01576040517f08c379a00000000000000000000000000000000000000000000000000000000081526004016109f890610dd3565b60405180910390fd5b6002600081905550565b6001600081905550565b828054610a2190611134565b90600052602060002090601f016020900481019282610a435760008555610a8a565b82601f10610a5c57805160ff1916838001178555610a8a565b82800160010185558215610a8a579182015b82811115610a89578251825591602001919060010190610a6e565b5b509050610a979190610a9b565b5090565b5b80821115610ab4576000816000905550600101610a9c565b5090565b6000610acb610ac684610f00565b610edb565b905082815260208101848484011115610ae357600080fd5b610aee8482856110f2565b509392505050565b600081359050610b05816113a0565b92915050565b600082601f830112610b1c57600080fd5b8135610b2c848260208601610ab8565b91505092915050565b600081359050610b44816113b7565b92915050565b60008060008060808587031215610b6057600080fd5b600085013567ffffffffffffffff811115610b7a57600080fd5b610b8687828801610b0b565b9450506020610b9787828801610af6565b9350506040610ba887828801610b35565b9250506060610bb987828801610b35565b91505092959194509250565b600060208284031215610bd757600080fd5b6000610be584828501610b35565b91505092915050565b610bf781611074565b82525050565b610c0681611062565b82525050565b610c1581611086565b82525050565b610c24816110ce565b82525050565b6000610c3582610f31565b610c3f8185610f3c565b9350610c4f818560208601611101565b610c588161129c565b840191505092915050565b6000610c70601f83610f3c565b9150610c7b826112ad565b602082019050919050565b6000610c93603383610f3c565b9150610c9e826112d6565b604082019050919050565b6000610cb6601283610f3c565b9150610cc182611325565b602082019050919050565b6000610cd9601f83610f3c565b9150610ce48261134e565b602082019050919050565b6000610cfc601183610f3c565b9150610d0782611377565b602082019050919050565b610d1b816110c4565b82525050565b6000602082019050610d366000830184610bee565b92915050565b6000606082019050610d516000830186610bfd565b610d5e6020830185610bfd565b610d6b6040830184610d12565b949350505050565b60006020820190508181036000830152610d8c81610c63565b9050919050565b60006020820190508181036000830152610dac81610c86565b9050919050565b60006020820190508181036000830152610dcc81610ca9565b9050919050565b60006020820190508181036000830152610dec81610ccc565b9050919050565b60006020820190508181036000830152610e0c81610cef565b9050919050565b6000602082019050610e286000830184610d12565b92915050565b600060e082019050610e43600083018a610d12565b8181036020830152610e558189610c2a565b9050610e646040830188610c1b565b610e716060830187610d12565b610e7e6080830186610d12565b610e8b60a0830185610bee565b610e9860c0830184610c0c565b98975050505050505050565b6000606082019050610eb96000830186610d12565b610ec66020830185610d12565b610ed36040830184610d12565b949350505050565b6000610ee5610ef6565b9050610ef18282611166565b919050565b6000604051905090565b600067ffffffffffffffff821115610f1b57610f1a61126d565b5b610f248261129c565b9050602081019050919050565b600081519050919050565b600082825260208201905092915050565b6000610f58826110c4565b9150610f63836110c4565b9250827fffffffffffffffffffffffffffffffffffffffffffffffffffffffffffffffff03821115610f9857610f976111e0565b5b828201905092915050565b6000610fae826110c4565b9150610fb9836110c4565b925082610fc957610fc861120f565b5b828204905092915050565b6000610fdf826110c4565b9150610fea836110c4565b9250817fffffffffffffffffffffffffffffffffffffffffffffffffffffffffffffffff0483118215151615611023576110226111e0565b5b828202905092915050565b6000611039826110c4565b9150611044836110c4565b925082821015611057576110566111e0565b5b828203905092915050565b600061106d826110a4565b9050919050565b600061107f826110a4565b9050919050565b60008115159050919050565b600061109d82611062565b9050919050565b600073ffffffffffffffffffffffffffffffffffffffff82169050919050565b6000819050919050565b60006110d9826110e0565b9050919050565b60006110eb826110a4565b9050919050565b82818337600083830152505050565b60005b8381101561111f578082015181840152602081019050611104565b8381111561112e576000848401525b50505050565b6000600282049050600182168061114c57607f821691505b602082108114156111605761115f61123e565b5b50919050565b61116f8261129c565b810181811067ffffffffffffffff8211171561118e5761118d61126d565b5b80604052505050565b60006111a2826110c4565b91507fffffffffffffffffffffffffffffffffffffffffffffffffffffffffffffffff8214156111d5576111d46111e0565b5b600182019050919050565b7f4e487b7100000000000000000000000000000000000000000000000000000000600052601160045260246000fd5b7f4e487b7100000000000000000000000000000000000000000000000000000000600052601260045260246000fd5b7f4e487b7100000000000000000000000000000000000000000000000000000000600052602260045260246000fd5b7f4e487b7100000000000000000000000000000000000000000000000000000000600052604160045260246000fd5b6000601f19601f8301169050919050565b7f5072696365206d7573742062652067726561746572207468616e207a65726f00600082015250565b7f4e6f7420656e6f75676820657468657220746f20636f766572206974656d207060008201527f7269636520616e64206d61726b65742066656500000000000000000000000000602082015250565b7f4974656d20646f65736e27742065786973740000000000000000000000000000600082015250565b7f5265656e7472616e637947756172643a207265656e7472616e742063616c6c00600082015250565b7f4974656d20616c726561647920736f6c64000000000000000000000000000000600082015250565b6113a981611092565b81146113b457600080fd5b50565b6113c0816110c4565b81146113cb57600080fd5b5056fea26469706673582212206d5c99f3304f85bae7185d6fbd2c0af35758321d1ff021713b5a8dd93996fa5864736f6c63430008040033",
  "linkReferences": {},
  "deployedLinkReferences": {}
}